{
    "_format": "hh-sol-artifact-1",
    "contractName": "PinMarketplace",
    "sourceName": "contracts/PinMarketplace.sol",
    "abi": [
        {
            "anonymous": false,
            "inputs": [
                {
                    "indexed": false,
                    "internalType": "uint256",
                    "name": "pinId",
                    "type": "uint256"
                },
                {
                    "indexed": false,
                    "internalType": "address",
                    "name": "owner",
                    "type": "address"
                },
                {
                    "indexed": false,
                    "internalType": "string",
                    "name": "metadataURI",
                    "type": "string"
                }
            ],
            "name": "PinCreated",
            "type": "event"
        },
        {
            "anonymous": false,
            "inputs": [
                {
                    "indexed": false,
                    "internalType": "uint256",
                    "name": "pinId",
                    "type": "uint256"
                },
                {
                    "indexed": false,
                    "internalType": "address",
                    "name": "newOwner",
                    "type": "address"
                },
                {
                    "indexed": false,
                    "internalType": "uint256",
                    "name": "price",
                    "type": "uint256"
                }
            ],
            "name": "PinPurchased",
            "type": "event"
        },
        {
            "inputs": [
                {
                    "internalType": "uint256",
                    "name": "_pinId",
                    "type": "uint256"
                }
            ],
            "name": "calculateDynamicPrice",
            "outputs": [
                {
                    "internalType": "uint256",
                    "name": "",
                    "type": "uint256"
                }
            ],
            "stateMutability": "view",
            "type": "function"
        },
        {
            "inputs": [
                {
                    "internalType": "string",
                    "name": "_metadataURI",
                    "type": "string"
                },
                {
                    "internalType": "uint256",
                    "name": "_initialPrice",
                    "type": "uint256"
                }
            ],
            "name": "createPin",
            "outputs": [],
            "stateMutability": "nonpayable",
            "type": "function"
        },
        {
            "inputs": [
                {
                    "internalType": "uint256",
                    "name": "_pinId",
                    "type": "uint256"
                }
            ],
            "name": "incrementViewCount",
            "outputs": [],
            "stateMutability": "nonpayable",
            "type": "function"
        },
        {
            "inputs": [],
            "name": "pinCount",
            "outputs": [
                {
                    "internalType": "uint256",
                    "name": "",
                    "type": "uint256"
                }
            ],
            "stateMutability": "view",
            "type": "function"
        },
        {
            "inputs": [
                {
                    "internalType": "uint256",
                    "name": "",
                    "type": "uint256"
                }
            ],
            "name": "pins",
            "outputs": [
                {
                    "internalType": "address",
                    "name": "owner",
                    "type": "address"
                },
                {
                    "internalType": "uint256",
                    "name": "price",
                    "type": "uint256"
                },
                {
                    "internalType": "uint256",
                    "name": "viewCount",
                    "type": "uint256"
                },
                {
                    "internalType": "uint256",
                    "name": "createdAt",
                    "type": "uint256"
                },
                {
                    "internalType": "string",
                    "name": "metadataURI",
                    "type": "string"
                }
            ],
            "stateMutability": "view",
            "type": "function"
        },
        {
            "inputs": [
                {
                    "internalType": "uint256",
                    "name": "_pinId",
                    "type": "uint256"
                }
            ],
            "name": "purchasePin",
            "outputs": [],
            "stateMutability": "payable",
            "type": "function"
        }
    ],
    "bytecode": "0x6080604052348015600f57600080fd5b506110e18061001f6000396000f3fe6080604052600436106100555760003560e01c806355353c471461005a5780639929f2ef14610097578063a3770481146100b3578063a89bc8d5146100dc578063a9a9b2e214610105578063fd08cbb414610130575b600080fd5b34801561006657600080fd5b50610081600480360381019061007c919061078e565b610171565b60405161008e91906107ca565b60405180910390f35b6100b160048036038101906100ac919061078e565b6102d3565b005b3480156100bf57600080fd5b506100da60048036038101906100d5919061078e565b610509565b005b3480156100e857600080fd5b5061010360048036038101906100fe919061092b565b610537565b005b34801561011157600080fd5b5061011a610660565b60405161012791906107ca565b60405180910390f35b34801561013c57600080fd5b506101576004803603810190610152919061078e565b610666565b604051610168959493929190610a47565b60405180910390f35b6000806000808481526020019081526020016000206040518060a00160405290816000820160009054906101000a900473ffffffffffffffffffffffffffffffffffffffff1673ffffffffffffffffffffffffffffffffffffffff1673ffffffffffffffffffffffffffffffffffffffff16815260200160018201548152602001600282015481526020016003820154815260200160048201805461021590610ad0565b80601f016020809104026020016040519081016040528092919081815260200182805461024190610ad0565b801561028e5780601f106102635761010080835404028352916020019161028e565b820191906000526020600020905b81548152906001019060200180831161027157829003601f168201915b505050505081525050905066038d7ea4c68000606482604001516102b29190610b5f565b6102bc9190610b90565b81602001516102cb9190610bd2565b915050919050565b600080600083815260200190815260200160002090508060010154341015610330576040517f08c379a000000000000000000000000000000000000000000000000000000000815260040161032790610c52565b60405180910390fd5b8060000160009054906101000a900473ffffffffffffffffffffffffffffffffffffffff1673ffffffffffffffffffffffffffffffffffffffff163373ffffffffffffffffffffffffffffffffffffffff16036103c2576040517f08c379a00000000000000000000000000000000000000000000000000000000081526004016103b990610cbe565b60405180910390fd5b60006103cd83610171565b905080341015610412576040517f08c379a000000000000000000000000000000000000000000000000000000000815260040161040990610d50565b60405180910390fd5b8160000160009054906101000a900473ffffffffffffffffffffffffffffffffffffffff1673ffffffffffffffffffffffffffffffffffffffff166108fc829081150290604051600060405180830381858888f1935050505015801561047c573d6000803e3d6000fd5b50338260000160006101000a81548173ffffffffffffffffffffffffffffffffffffffff021916908373ffffffffffffffffffffffffffffffffffffffff1602179055508082600101819055507f1da4dbe1e2956efd69bae8f4ef205ad7b53c664f7431b1c717d53ce3022691468333836040516104fc93929190610d70565b60405180910390a1505050565b600080828152602001908152602001600020600201600081548092919061052f90610da7565b919050555050565b6001600081548092919061054a90610da7565b91905055506040518060a001604052803373ffffffffffffffffffffffffffffffffffffffff1681526020018281526020016000815260200142815260200183815250600080600154815260200190815260200160002060008201518160000160006101000a81548173ffffffffffffffffffffffffffffffffffffffff021916908373ffffffffffffffffffffffffffffffffffffffff160217905550602082015181600101556040820151816002015560608201518160030155608082015181600401908161061b9190610f9b565b509050507f920d17a5c31a496f0b86c1c3ae27a2be5a5118d650cf457ab7f952cef3df510d60015433846040516106549392919061106d565b60405180910390a15050565b60015481565b60006020528060005260406000206000915090508060000160009054906101000a900473ffffffffffffffffffffffffffffffffffffffff16908060010154908060020154908060030154908060040180546106c190610ad0565b80601f01602080910402602001604051908101604052809291908181526020018280546106ed90610ad0565b801561073a5780601f1061070f5761010080835404028352916020019161073a565b820191906000526020600020905b81548152906001019060200180831161071d57829003601f168201915b5050505050905085565b6000604051905090565b600080fd5b600080fd5b6000819050919050565b61076b81610758565b811461077657600080fd5b50565b60008135905061078881610762565b92915050565b6000602082840312156107a4576107a361074e565b5b60006107b284828501610779565b91505092915050565b6107c481610758565b82525050565b60006020820190506107df60008301846107bb565b92915050565b600080fd5b600080fd5b6000601f19601f8301169050919050565b7f4e487b7100000000000000000000000000000000000000000000000000000000600052604160045260246000fd5b610838826107ef565b810181811067ffffffffffffffff8211171561085757610856610800565b5b80604052505050565b600061086a610744565b9050610876828261082f565b919050565b600067ffffffffffffffff82111561089657610895610800565b5b61089f826107ef565b9050602081019050919050565b82818337600083830152505050565b60006108ce6108c98461087b565b610860565b9050828152602081018484840111156108ea576108e96107ea565b5b6108f58482856108ac565b509392505050565b600082601f830112610912576109116107e5565b5b81356109228482602086016108bb565b91505092915050565b600080604083850312156109425761094161074e565b5b600083013567ffffffffffffffff8111156109605761095f610753565b5b61096c858286016108fd565b925050602061097d85828601610779565b9150509250929050565b600073ffffffffffffffffffffffffffffffffffffffff82169050919050565b60006109b282610987565b9050919050565b6109c2816109a7565b82525050565b600081519050919050565b600082825260208201905092915050565b60005b83811015610a025780820151818401526020810190506109e7565b60008484015250505050565b6000610a19826109c8565b610a2381856109d3565b9350610a338185602086016109e4565b610a3c816107ef565b840191505092915050565b600060a082019050610a5c60008301886109b9565b610a6960208301876107bb565b610a7660408301866107bb565b610a8360608301856107bb565b8181036080830152610a958184610a0e565b90509695505050505050565b7f4e487b7100000000000000000000000000000000000000000000000000000000600052602260045260246000fd5b60006002820490506001821680610ae857607f821691505b602082108103610afb57610afa610aa1565b5b50919050565b7f4e487b7100000000000000000000000000000000000000000000000000000000600052601260045260246000fd5b7f4e487b7100000000000000000000000000000000000000000000000000000000600052601160045260246000fd5b6000610b6a82610758565b9150610b7583610758565b925082610b8557610b84610b01565b5b828204905092915050565b6000610b9b82610758565b9150610ba683610758565b9250828202610bb481610758565b91508282048414831517610bcb57610bca610b30565b5b5092915050565b6000610bdd82610758565b9150610be883610758565b9250828201905080821115610c0057610bff610b30565b5b92915050565b7f496e73756666696369656e742066756e64730000000000000000000000000000600082015250565b6000610c3c6012836109d3565b9150610c4782610c06565b602082019050919050565b60006020820190508181036000830152610c6b81610c2f565b9050919050565b7f43616e6e6f742062757920796f7572206f776e2070696e000000000000000000600082015250565b6000610ca86017836109d3565b9150610cb382610c72565b602082019050919050565b60006020820190508181036000830152610cd781610c9b565b9050919050565b7f496e73756666696369656e742066756e647320666f722063757272656e74207060008201527f7269636500000000000000000000000000000000000000000000000000000000602082015250565b6000610d3a6024836109d3565b9150610d4582610cde565b604082019050919050565b60006020820190508181036000830152610d6981610d2d565b9050919050565b6000606082019050610d8560008301866107bb565b610d9260208301856109b9565b610d9f60408301846107bb565b949350505050565b6000610db282610758565b91507fffffffffffffffffffffffffffffffffffffffffffffffffffffffffffffffff8203610de457610de3610b30565b5b600182019050919050565b60008190508160005260206000209050919050565b60006020601f8301049050919050565b600082821b905092915050565b600060088302610e517fffffffffffffffffffffffffffffffffffffffffffffffffffffffffffffffff82610e14565b610e5b8683610e14565b95508019841693508086168417925050509392505050565b6000819050919050565b6000610e98610e93610e8e84610758565b610e73565b610758565b9050919050565b6000819050919050565b610eb283610e7d565b610ec6610ebe82610e9f565b848454610e21565b825550505050565b600090565b610edb610ece565b610ee6818484610ea9565b505050565b5b81811015610f0a57610eff600082610ed3565b600181019050610eec565b5050565b601f821115610f4f57610f2081610def565b610f2984610e04565b81016020851015610f38578190505b610f4c610f4485610e04565b830182610eeb565b50505b505050565b600082821c905092915050565b6000610f7260001984600802610f54565b1980831691505092915050565b6000610f8b8383610f61565b9150826002028217905092915050565b610fa4826109c8565b67ffffffffffffffff811115610fbd57610fbc610800565b5b610fc78254610ad0565b610fd2828285610f0e565b600060209050601f8311600181146110055760008415610ff3578287015190505b610ffd8582610f7f565b865550611065565b601f19841661101386610def565b60005b8281101561103b57848901518255600182019150602085019450602081019050611016565b868310156110585784890151611054601f891682610f61565b8355505b6001600288020188555050505b505050505050565b600060608201905061108260008301866107bb565b61108f60208301856109b9565b81810360408301526110a18184610a0e565b905094935050505056fea26469706673582212209ba18c8976424773f4628b568f39e8fa330a5575169a6b893989dd16dbb4824464736f6c634300081c0033",
    "linkReferences": {},
    "deployedLinkReferences": {}
}